{
  "contractName": "DocumentVerification",
  "abi": [
    {
      "anonymous": false,
      "inputs": [
        {
          "indexed": false,
          "internalType": "address",
          "name": "",
          "type": "address"
        },
        {
          "indexed": false,
          "internalType": "address",
          "name": "",
          "type": "address"
        },
        {
          "indexed": false,
          "internalType": "string",
          "name": "",
          "type": "string"
        },
        {
          "indexed": false,
          "internalType": "string",
          "name": "",
          "type": "string"
        }
      ],
      "name": "adddocuments",
      "type": "event"
    },
    {
      "inputs": [
        {
          "internalType": "address",
          "name": "",
          "type": "address"
        }
      ],
      "name": "Owner_document_count",
      "outputs": [
        {
          "internalType": "uint256",
          "name": "",
          "type": "uint256"
        }
      ],
      "stateMutability": "view",
      "type": "function",
      "constant": true
    },
    {
      "inputs": [
        {
          "internalType": "address",
          "name": "",
          "type": "address"
        },
        {
          "internalType": "uint256",
          "name": "",
          "type": "uint256"
        }
      ],
      "name": "Owners",
      "outputs": [
        {
          "internalType": "string",
          "name": "hash",
          "type": "string"
        },
        {
          "internalType": "string",
          "name": "filename",
          "type": "string"
        },
        {
          "internalType": "uint256",
          "name": "upload_timestamp",
          "type": "uint256"
        },
        {
          "internalType": "uint256",
          "name": "verified_timestamp",
          "type": "uint256"
        },
        {
          "internalType": "bool",
          "name": "verified",
          "type": "bool"
        },
        {
          "internalType": "address",
          "name": "verifier",
          "type": "address"
        },
        {
          "internalType": "address",
          "name": "owner",
          "type": "address"
        },
        {
          "internalType": "string",
          "name": "verifying_code",
          "type": "string"
        },
        {
          "internalType": "string",
          "name": "documentinfo",
          "type": "string"
        },
        {
          "internalType": "string",
          "name": "msg_document",
          "type": "string"
        }
      ],
      "stateMutability": "view",
      "type": "function",
      "constant": true
    },
    {
      "inputs": [
        {
          "internalType": "address",
          "name": "",
          "type": "address"
        }
      ],
      "name": "Verifier_document_count",
      "outputs": [
        {
          "internalType": "uint256",
          "name": "",
          "type": "uint256"
        }
      ],
      "stateMutability": "view",
      "type": "function",
      "constant": true
    },
    {
      "inputs": [
        {
          "internalType": "address",
          "name": "",
          "type": "address"
        },
        {
          "internalType": "uint256",
          "name": "",
          "type": "uint256"
        }
      ],
      "name": "Verifiers",
      "outputs": [
        {
          "internalType": "string",
          "name": "hash",
          "type": "string"
        },
        {
          "internalType": "string",
          "name": "filename",
          "type": "string"
        },
        {
          "internalType": "uint256",
          "name": "upload_timestamp",
          "type": "uint256"
        },
        {
          "internalType": "uint256",
          "name": "verified_timestamp",
          "type": "uint256"
        },
        {
          "internalType": "bool",
          "name": "verified",
          "type": "bool"
        },
        {
          "internalType": "address",
          "name": "verifier",
          "type": "address"
        },
        {
          "internalType": "address",
          "name": "owner",
          "type": "address"
        },
        {
          "internalType": "string",
          "name": "verifying_code",
          "type": "string"
        },
        {
          "internalType": "string",
          "name": "documentinfo",
          "type": "string"
        },
        {
          "internalType": "string",
          "name": "msg_document",
          "type": "string"
        }
      ],
      "stateMutability": "view",
      "type": "function",
      "constant": true
    },
    {
      "inputs": [
        {
          "internalType": "string",
          "name": "",
          "type": "string"
        },
        {
          "internalType": "uint256",
          "name": "",
          "type": "uint256"
        }
      ],
      "name": "_verifying_code",
      "outputs": [
        {
          "internalType": "string",
          "name": "hash",
          "type": "string"
        },
        {
          "internalType": "string",
          "name": "filename",
          "type": "string"
        },
        {
          "internalType": "uint256",
          "name": "upload_timestamp",
          "type": "uint256"
        },
        {
          "internalType": "uint256",
          "name": "verified_timestamp",
          "type": "uint256"
        },
        {
          "internalType": "bool",
          "name": "verified",
          "type": "bool"
        },
        {
          "internalType": "address",
          "name": "verifier",
          "type": "address"
        },
        {
          "internalType": "address",
          "name": "owner",
          "type": "address"
        },
        {
          "internalType": "string",
          "name": "verifying_code",
          "type": "string"
        },
        {
          "internalType": "string",
          "name": "documentinfo",
          "type": "string"
        },
        {
          "internalType": "string",
          "name": "msg_document",
          "type": "string"
        }
      ],
      "stateMutability": "view",
      "type": "function",
      "constant": true
    },
    {
      "inputs": [
        {
          "internalType": "string",
          "name": "",
          "type": "string"
        }
      ],
      "name": "documents",
      "outputs": [
        {
          "internalType": "string",
          "name": "hash",
          "type": "string"
        },
        {
          "internalType": "string",
          "name": "filename",
          "type": "string"
        },
        {
          "internalType": "uint256",
          "name": "upload_timestamp",
          "type": "uint256"
        },
        {
          "internalType": "uint256",
          "name": "verified_timestamp",
          "type": "uint256"
        },
        {
          "internalType": "bool",
          "name": "verified",
          "type": "bool"
        },
        {
          "internalType": "address",
          "name": "verifier",
          "type": "address"
        },
        {
          "internalType": "address",
          "name": "owner",
          "type": "address"
        },
        {
          "internalType": "string",
          "name": "verifying_code",
          "type": "string"
        },
        {
          "internalType": "string",
          "name": "documentinfo",
          "type": "string"
        },
        {
          "internalType": "string",
          "name": "msg_document",
          "type": "string"
        }
      ],
      "stateMutability": "view",
      "type": "function",
      "constant": true
    },
    {
      "inputs": [
        {
          "internalType": "address",
          "name": "",
          "type": "address"
        }
      ],
      "name": "existence",
      "outputs": [
        {
          "internalType": "bool",
          "name": "",
          "type": "bool"
        }
      ],
      "stateMutability": "view",
      "type": "function",
      "constant": true
    },
    {
      "inputs": [
        {
          "internalType": "string",
          "name": "_hash",
          "type": "string"
        },
        {
          "internalType": "string",
          "name": "filename",
          "type": "string"
        },
        {
          "internalType": "address",
          "name": "owner",
          "type": "address"
        },
        {
          "internalType": "address",
          "name": "verifier",
          "type": "address"
        },
        {
          "internalType": "string",
          "name": "documentinfo",
          "type": "string"
        },
        {
          "internalType": "string",
          "name": "verifying_code",
          "type": "string"
        }
      ],
      "name": "addDocument",
      "outputs": [],
      "stateMutability": "nonpayable",
      "type": "function"
    },
    {
      "inputs": [
        {
          "internalType": "uint256",
          "name": "index",
          "type": "uint256"
        },
        {
          "internalType": "address",
          "name": "owner",
          "type": "address"
        },
        {
          "internalType": "address",
          "name": "verifier",
          "type": "address"
        },
        {
          "internalType": "string",
          "name": "message",
          "type": "string"
        }
      ],
      "name": "verifyDocuments",
      "outputs": [],
      "stateMutability": "nonpayable",
      "type": "function"
    }
  ],
  "bytecode": "0x608060405234801561001057600080fd5b5061279f806100206000396000f3fe608060405234801561001057600080fd5b50600436106100935760003560e01c80634d3a2d67116100665780634d3a2d671461013957806359d6201e14610169578063a336acfc146101a2578063aa4ef8ee146101d2578063b3dd697b1461020b57610093565b80630cd763c21461009857806312989cc2146100b45780631d591a90146100ed57806334c8ccf514610109575b600080fd5b6100b260048036038101906100ad9190611edd565b610244565b005b6100ce60048036038101906100c99190611f60565b610744565b6040516100e49a9998979695949392919061207d565b60405180910390f35b6101076004803603810190610102919061213c565b610ab0565b005b610123600480360381019061011e9190612239565b6111f1565b6040516101309190612266565b60405180910390f35b610153600480360381019061014e9190612239565b611209565b6040516101609190612266565b60405180910390f35b610183600480360381019061017e9190612281565b611221565b6040516101999a9998979695949392919061207d565b60405180910390f35b6101bc60048036038101906101b79190612239565b611577565b6040516101c991906122c1565b60405180910390f35b6101ec60048036038101906101e79190612281565b611597565b6040516102029a9998979695949392919061207d565b60405180910390f35b610225600480360381019061022091906122dc565b6118ed565b60405161023b9a9998979695949392919061207d565b60405180910390f35b60011515600660008573ffffffffffffffffffffffffffffffffffffffff1673ffffffffffffffffffffffffffffffffffffffff16815260200190815260200160002060009054906101000a900460ff161515146102d7576040517f08c379a00000000000000000000000000000000000000000000000000000000081526004016102ce90612371565b60405180910390fd5b600560008473ffffffffffffffffffffffffffffffffffffffff1673ffffffffffffffffffffffffffffffffffffffff16815260200190815260200160002054841115610359576040517f08c379a000000000000000000000000000000000000000000000000000000000815260040161035090612403565b60405180910390fd5b8173ffffffffffffffffffffffffffffffffffffffff16600260008573ffffffffffffffffffffffffffffffffffffffff1673ffffffffffffffffffffffffffffffffffffffff168152602001908152602001600020600086815260200190815260200160002060040160019054906101000a900473ffffffffffffffffffffffffffffffffffffffff1673ffffffffffffffffffffffffffffffffffffffff161461043a576040517f08c379a00000000000000000000000000000000000000000000000000000000081526004016104319061246f565b60405180910390fd5b60001515600260008573ffffffffffffffffffffffffffffffffffffffff1673ffffffffffffffffffffffffffffffffffffffff168152602001908152602001600020600086815260200190815260200160002060040160009054906101000a900460ff161515146104e1576040517f08c379a00000000000000000000000000000000000000000000000000000000081526004016104d8906124db565b60405180910390fd5b60004290506001600260008673ffffffffffffffffffffffffffffffffffffffff1673ffffffffffffffffffffffffffffffffffffffff168152602001908152602001600020600087815260200190815260200160002060040160006101000a81548160ff02191690831515021790555080600260008673ffffffffffffffffffffffffffffffffffffffff1673ffffffffffffffffffffffffffffffffffffffff16815260200190815260200160002060008781526020019081526020016000206003018190555081600260008673ffffffffffffffffffffffffffffffffffffffff1673ffffffffffffffffffffffffffffffffffffffff16815260200190815260200160002060008781526020019081526020016000206008019080519060200190610611929190611c4c565b5060018060008573ffffffffffffffffffffffffffffffffffffffff1673ffffffffffffffffffffffffffffffffffffffff168152602001908152602001600020600087815260200190815260200160002060040160006101000a81548160ff02191690831515021790555080600160008573ffffffffffffffffffffffffffffffffffffffff1673ffffffffffffffffffffffffffffffffffffffff16815260200190815260200160002060008781526020019081526020016000206003018190555081600160008573ffffffffffffffffffffffffffffffffffffffff1673ffffffffffffffffffffffffffffffffffffffff1681526020019081526020016000206000878152602001908152602001600020600801908051906020019061073c929190611c4c565b505050505050565b6003828051602081018201805184825260208301602085012081835280955050505050506020528060005260406000206000915091505080600001805461078a9061252a565b80601f01602080910402602001604051908101604052809291908181526020018280546107b69061252a565b80156108035780601f106107d857610100808354040283529160200191610803565b820191906000526020600020905b8154815290600101906020018083116107e657829003601f168201915b5050505050908060010180546108189061252a565b80601f01602080910402602001604051908101604052809291908181526020018280546108449061252a565b80156108915780601f1061086657610100808354040283529160200191610891565b820191906000526020600020905b81548152906001019060200180831161087457829003601f168201915b5050505050908060020154908060030154908060040160009054906101000a900460ff16908060040160019054906101000a900473ffffffffffffffffffffffffffffffffffffffff16908060050160009054906101000a900473ffffffffffffffffffffffffffffffffffffffff16908060060180546109119061252a565b80601f016020809104026020016040519081016040528092919081815260200182805461093d9061252a565b801561098a5780601f1061095f5761010080835404028352916020019161098a565b820191906000526020600020905b81548152906001019060200180831161096d57829003601f168201915b50505050509080600701805461099f9061252a565b80601f01602080910402602001604051908101604052809291908181526020018280546109cb9061252a565b8015610a185780601f106109ed57610100808354040283529160200191610a18565b820191906000526020600020905b8154815290600101906020018083116109fb57829003601f168201915b505050505090806008018054610a2d9061252a565b80601f0160208091040260200160405190810160405280929190818152602001828054610a599061252a565b8015610aa65780601f10610a7b57610100808354040283529160200191610aa6565b820191906000526020600020905b815481529060010190602001808311610a8957829003601f168201915b505050505090508a565b600073ffffffffffffffffffffffffffffffffffffffff168473ffffffffffffffffffffffffffffffffffffffff1603610b1f576040517f08c379a0000000000000000000000000000000000000000000000000000000008152600401610b16906125a7565b60405180910390fd5b600073ffffffffffffffffffffffffffffffffffffffff168373ffffffffffffffffffffffffffffffffffffffff1603610b8e576040517f08c379a0000000000000000000000000000000000000000000000000000000008152600401610b8590612613565b60405180910390fd5b6000815111610bd2576040517f08c379a0000000000000000000000000000000000000000000000000000000008152600401610bc99061267f565b60405180910390fd5b604051806101400160405280878152602001868152602001428152602001600081526020016000151581526020018473ffffffffffffffffffffffffffffffffffffffff1681526020018573ffffffffffffffffffffffffffffffffffffffff16815260200182815260200183815260200160405180602001604052806000815250815250600260008673ffffffffffffffffffffffffffffffffffffffff1673ffffffffffffffffffffffffffffffffffffffff1681526020019081526020016000206000600560008873ffffffffffffffffffffffffffffffffffffffff1673ffffffffffffffffffffffffffffffffffffffff1681526020019081526020016000205481526020019081526020016000206000820151816000019080519060200190610d02929190611c4c565b506020820151816001019080519060200190610d1f929190611c4c565b50604082015181600201556060820151816003015560808201518160040160006101000a81548160ff02191690831515021790555060a08201518160040160016101000a81548173ffffffffffffffffffffffffffffffffffffffff021916908373ffffffffffffffffffffffffffffffffffffffff16021790555060c08201518160050160006101000a81548173ffffffffffffffffffffffffffffffffffffffff021916908373ffffffffffffffffffffffffffffffffffffffff16021790555060e0820151816006019080519060200190610dfe929190611c4c565b50610100820151816007019080519060200190610e1c929190611c4c565b50610120820151816008019080519060200190610e3a929190611c4c565b50905050604051806101400160405280878152602001868152602001428152602001600081526020016000151581526020018473ffffffffffffffffffffffffffffffffffffffff1681526020018573ffffffffffffffffffffffffffffffffffffffff16815260200182815260200183815260200160405180602001604052806000815250815250600160008573ffffffffffffffffffffffffffffffffffffffff1673ffffffffffffffffffffffffffffffffffffffff1681526020019081526020016000206000600460008773ffffffffffffffffffffffffffffffffffffffff1673ffffffffffffffffffffffffffffffffffffffff1681526020019081526020016000205481526020019081526020016000206000820151816000019080519060200190610f6e929190611c4c565b506020820151816001019080519060200190610f8b929190611c4c565b50604082015181600201556060820151816003015560808201518160040160006101000a81548160ff02191690831515021790555060a08201518160040160016101000a81548173ffffffffffffffffffffffffffffffffffffffff021916908373ffffffffffffffffffffffffffffffffffffffff16021790555060c08201518160050160006101000a81548173ffffffffffffffffffffffffffffffffffffffff021916908373ffffffffffffffffffffffffffffffffffffffff16021790555060e082015181600601908051906020019061106a929190611c4c565b50610100820151816007019080519060200190611088929190611c4c565b506101208201518160080190805190602001906110a6929190611c4c565b50905050600560008573ffffffffffffffffffffffffffffffffffffffff1673ffffffffffffffffffffffffffffffffffffffff16815260200190815260200160002060008154809291906110fa906126ce565b9190505550600460008473ffffffffffffffffffffffffffffffffffffffff1673ffffffffffffffffffffffffffffffffffffffff168152602001908152602001600020600081548092919061114f906126ce565b91905055506001600660008673ffffffffffffffffffffffffffffffffffffffff1673ffffffffffffffffffffffffffffffffffffffff16815260200190815260200160002060006101000a81548160ff0219169083151502179055507f0e8f5f7fbb7367b75ee44a1115821cdf8fbe3da5c462fe6a32b1af4201959476848488846040516111e19493929190612716565b60405180910390a1505050505050565b60046020528060005260406000206000915090505481565b60056020528060005260406000206000915090505481565b6002602052816000526040600020602052806000526040600020600091509150508060000180546112519061252a565b80601f016020809104026020016040519081016040528092919081815260200182805461127d9061252a565b80156112ca5780601f1061129f576101008083540402835291602001916112ca565b820191906000526020600020905b8154815290600101906020018083116112ad57829003601f168201915b5050505050908060010180546112df9061252a565b80601f016020809104026020016040519081016040528092919081815260200182805461130b9061252a565b80156113585780601f1061132d57610100808354040283529160200191611358565b820191906000526020600020905b81548152906001019060200180831161133b57829003601f168201915b5050505050908060020154908060030154908060040160009054906101000a900460ff16908060040160019054906101000a900473ffffffffffffffffffffffffffffffffffffffff16908060050160009054906101000a900473ffffffffffffffffffffffffffffffffffffffff16908060060180546113d89061252a565b80601f01602080910402602001604051908101604052809291908181526020018280546114049061252a565b80156114515780601f1061142657610100808354040283529160200191611451565b820191906000526020600020905b81548152906001019060200180831161143457829003601f168201915b5050505050908060070180546114669061252a565b80601f01602080910402602001604051908101604052809291908181526020018280546114929061252a565b80156114df5780601f106114b4576101008083540402835291602001916114df565b820191906000526020600020905b8154815290600101906020018083116114c257829003601f168201915b5050505050908060080180546114f49061252a565b80601f01602080910402602001604051908101604052809291908181526020018280546115209061252a565b801561156d5780601f106115425761010080835404028352916020019161156d565b820191906000526020600020905b81548152906001019060200180831161155057829003601f168201915b505050505090508a565b60066020528060005260406000206000915054906101000a900460ff1681565b6001602052816000526040600020602052806000526040600020600091509150508060000180546115c79061252a565b80601f01602080910402602001604051908101604052809291908181526020018280546115f39061252a565b80156116405780601f1061161557610100808354040283529160200191611640565b820191906000526020600020905b81548152906001019060200180831161162357829003601f168201915b5050505050908060010180546116559061252a565b80601f01602080910402602001604051908101604052809291908181526020018280546116819061252a565b80156116ce5780601f106116a3576101008083540402835291602001916116ce565b820191906000526020600020905b8154815290600101906020018083116116b157829003601f168201915b5050505050908060020154908060030154908060040160009054906101000a900460ff16908060040160019054906101000a900473ffffffffffffffffffffffffffffffffffffffff16908060050160009054906101000a900473ffffffffffffffffffffffffffffffffffffffff169080600601805461174e9061252a565b80601f016020809104026020016040519081016040528092919081815260200182805461177a9061252a565b80156117c75780601f1061179c576101008083540402835291602001916117c7565b820191906000526020600020905b8154815290600101906020018083116117aa57829003601f168201915b5050505050908060070180546117dc9061252a565b80601f01602080910402602001604051908101604052809291908181526020018280546118089061252a565b80156118555780601f1061182a57610100808354040283529160200191611855565b820191906000526020600020905b81548152906001019060200180831161183857829003601f168201915b50505050509080600801805461186a9061252a565b80601f01602080910402602001604051908101604052809291908181526020018280546118969061252a565b80156118e35780601f106118b8576101008083540402835291602001916118e3565b820191906000526020600020905b8154815290600101906020018083116118c657829003601f168201915b505050505090508a565b6000818051602081018201805184825260208301602085012081835280955050505050506000915090508060000180546119269061252a565b80601f01602080910402602001604051908101604052809291908181526020018280546119529061252a565b801561199f5780601f106119745761010080835404028352916020019161199f565b820191906000526020600020905b81548152906001019060200180831161198257829003601f168201915b5050505050908060010180546119b49061252a565b80601f01602080910402602001604051908101604052809291908181526020018280546119e09061252a565b8015611a2d5780601f10611a0257610100808354040283529160200191611a2d565b820191906000526020600020905b815481529060010190602001808311611a1057829003601f168201915b5050505050908060020154908060030154908060040160009054906101000a900460ff16908060040160019054906101000a900473ffffffffffffffffffffffffffffffffffffffff16908060050160009054906101000a900473ffffffffffffffffffffffffffffffffffffffff1690806006018054611aad9061252a565b80601f0160208091040260200160405190810160405280929190818152602001828054611ad99061252a565b8015611b265780601f10611afb57610100808354040283529160200191611b26565b820191906000526020600020905b815481529060010190602001808311611b0957829003601f168201915b505050505090806007018054611b3b9061252a565b80601f0160208091040260200160405190810160405280929190818152602001828054611b679061252a565b8015611bb45780601f10611b8957610100808354040283529160200191611bb4565b820191906000526020600020905b815481529060010190602001808311611b9757829003601f168201915b505050505090806008018054611bc99061252a565b80601f0160208091040260200160405190810160405280929190818152602001828054611bf59061252a565b8015611c425780601f10611c1757610100808354040283529160200191611c42565b820191906000526020600020905b815481529060010190602001808311611c2557829003601f168201915b505050505090508a565b828054611c589061252a565b90600052602060002090601f016020900481019282611c7a5760008555611cc1565b82601f10611c9357805160ff1916838001178555611cc1565b82800160010185558215611cc1579182015b82811115611cc0578251825591602001919060010190611ca5565b5b509050611cce9190611cd2565b5090565b5b80821115611ceb576000816000905550600101611cd3565b5090565b6000604051905090565b600080fd5b600080fd5b6000819050919050565b611d1681611d03565b8114611d2157600080fd5b50565b600081359050611d3381611d0d565b92915050565b600073ffffffffffffffffffffffffffffffffffffffff82169050919050565b6000611d6482611d39565b9050919050565b611d7481611d59565b8114611d7f57600080fd5b50565b600081359050611d9181611d6b565b92915050565b600080fd5b600080fd5b6000601f19601f8301169050919050565b7f4e487b7100000000000000000000000000000000000000000000000000000000600052604160045260246000fd5b611dea82611da1565b810181811067ffffffffffffffff82111715611e0957611e08611db2565b5b80604052505050565b6000611e1c611cef565b9050611e288282611de1565b919050565b600067ffffffffffffffff821115611e4857611e47611db2565b5b611e5182611da1565b9050602081019050919050565b82818337600083830152505050565b6000611e80611e7b84611e2d565b611e12565b905082815260208101848484011115611e9c57611e9b611d9c565b5b611ea7848285611e5e565b509392505050565b600082601f830112611ec457611ec3611d97565b5b8135611ed4848260208601611e6d565b91505092915050565b60008060008060808587031215611ef757611ef6611cf9565b5b6000611f0587828801611d24565b9450506020611f1687828801611d82565b9350506040611f2787828801611d82565b925050606085013567ffffffffffffffff811115611f4857611f47611cfe565b5b611f5487828801611eaf565b91505092959194509250565b60008060408385031215611f7757611f76611cf9565b5b600083013567ffffffffffffffff811115611f9557611f94611cfe565b5b611fa185828601611eaf565b9250506020611fb285828601611d24565b9150509250929050565b600081519050919050565b600082825260208201905092915050565b60005b83811015611ff6578082015181840152602081019050611fdb565b83811115612005576000848401525b50505050565b600061201682611fbc565b6120208185611fc7565b9350612030818560208601611fd8565b61203981611da1565b840191505092915050565b61204d81611d03565b82525050565b60008115159050919050565b61206881612053565b82525050565b61207781611d59565b82525050565b6000610140820190508181036000830152612098818d61200b565b905081810360208301526120ac818c61200b565b90506120bb604083018b612044565b6120c8606083018a612044565b6120d5608083018961205f565b6120e260a083018861206e565b6120ef60c083018761206e565b81810360e0830152612101818661200b565b9050818103610100830152612116818561200b565b905081810361012083015261212b818461200b565b90509b9a5050505050505050505050565b60008060008060008060c0878903121561215957612158611cf9565b5b600087013567ffffffffffffffff81111561217757612176611cfe565b5b61218389828a01611eaf565b965050602087013567ffffffffffffffff8111156121a4576121a3611cfe565b5b6121b089828a01611eaf565b95505060406121c189828a01611d82565b94505060606121d289828a01611d82565b935050608087013567ffffffffffffffff8111156121f3576121f2611cfe565b5b6121ff89828a01611eaf565b92505060a087013567ffffffffffffffff8111156122205761221f611cfe565b5b61222c89828a01611eaf565b9150509295509295509295565b60006020828403121561224f5761224e611cf9565b5b600061225d84828501611d82565b91505092915050565b600060208201905061227b6000830184612044565b92915050565b6000806040838503121561229857612297611cf9565b5b60006122a685828601611d82565b92505060206122b785828601611d24565b9150509250929050565b60006020820190506122d6600083018461205f565b92915050565b6000602082840312156122f2576122f1611cf9565b5b600082013567ffffffffffffffff8111156123105761230f611cfe565b5b61231c84828501611eaf565b91505092915050565b7f496e76616c6964204f776e6572204163636f756e740000000000000000000000600082015250565b600061235b601583611fc7565b915061236682612325565b602082019050919050565b6000602082019050818103600083015261238a8161234e565b9050919050565b7f4e6f2066696c65206973206173736f636961746564207769746820676976656e60008201527f20696e6465780000000000000000000000000000000000000000000000000000602082015250565b60006123ed602683611fc7565b91506123f882612391565b604082019050919050565b6000602082019050818103600083015261241c816123e0565b9050919050565b7f496e76616c6964207665726966696572206163636f756e740000000000000000600082015250565b6000612459601883611fc7565b915061246482612423565b602082019050919050565b600060208201905081810360008301526124888161244c565b9050919050565b7f446f63756d656e7420416c726561647920766572696669656400000000000000600082015250565b60006124c5601983611fc7565b91506124d08261248f565b602082019050919050565b600060208201905081810360008301526124f4816124b8565b9050919050565b7f4e487b7100000000000000000000000000000000000000000000000000000000600052602260045260246000fd5b6000600282049050600182168061254257607f821691505b602082108103612555576125546124fb565b5b50919050565b7f496e76616c6964206f776e657220616464726573730000000000000000000000600082015250565b6000612591601583611fc7565b915061259c8261255b565b602082019050919050565b600060208201905081810360008301526125c081612584565b9050919050565b7f496e76616c696420766572696669657220616464726573730000000000000000600082015250565b60006125fd601883611fc7565b9150612608826125c7565b602082019050919050565b6000602082019050818103600083015261262c816125f0565b9050919050565b7f766572696679696e6720636f64652063616e206e6f7420626520656d70747900600082015250565b6000612669601f83611fc7565b915061267482612633565b602082019050919050565b600060208201905081810360008301526126988161265c565b9050919050565b7f4e487b7100000000000000000000000000000000000000000000000000000000600052601160045260246000fd5b60006126d982611d03565b91507fffffffffffffffffffffffffffffffffffffffffffffffffffffffffffffffff820361270b5761270a61269f565b5b600182019050919050565b600060808201905061272b600083018761206e565b612738602083018661206e565b818103604083015261274a818561200b565b9050818103606083015261275e818461200b565b90509594505050505056fea2646970667358221220c79e4af814349e965d504602765f03962486f7ce23cdf938227fbf0fd4f84a4d64736f6c634300080d0033",
  "immutableReferences": {},
  "source": "// SPDX-License-Identifier: MIT\r\npragma solidity ^0.8.0;\r\n\r\ncontract DocumentVerification {\r\n    struct Document {\r\n        string hash; \r\n        string filename;\r\n        uint256 upload_timestamp;\r\n        uint256 verified_timestamp;\r\n        bool verified;\r\n        address verifier;\r\n        address owner;\r\n        string verifying_code;\r\n        string documentinfo;\r\n        string msg_document;\r\n    }\r\n\r\n    mapping(string => Document) public documents;\r\n    mapping(address => mapping(uint256 => Document)) public Verifiers;\r\n    mapping(address => mapping(uint256 => Document)) public Owners;\r\n    mapping(string => mapping(uint256 => Document)) public _verifying_code;\r\n\r\n    event adddocuments(address, address, string, string);\r\n\r\n    mapping(address => uint256) public Verifier_document_count;\r\n    mapping(address => uint256) public Owner_document_count;\r\n    mapping(address => bool) public existence;\r\n\r\n    function addDocument(\r\n        string memory _hash, \r\n        string memory filename,\r\n        address owner,\r\n        address verifier,\r\n        string memory documentinfo,\r\n        string memory verifying_code\r\n    ) public {\r\n        require(owner != address(0), \"Invalid owner address\");\r\n        require(verifier != address(0), \"Invalid verifier address\");\r\n        require(\r\n            bytes(verifying_code).length > 0,\r\n            \"verifying code can not be empty\"\r\n        );\r\n        Owners[owner][Owner_document_count[owner]] = Document(\r\n            _hash, \r\n            filename,\r\n            block.timestamp,\r\n            0,\r\n            false,\r\n            verifier,\r\n            owner,\r\n            verifying_code,\r\n            documentinfo,\r\n            \"\"\r\n        );\r\n        Verifiers[verifier][Verifier_document_count[verifier]] = Document(\r\n            _hash,  \r\n            filename,\r\n            block.timestamp,\r\n            0,\r\n            false,\r\n            verifier,\r\n            owner,\r\n            verifying_code,\r\n            documentinfo,\r\n            \"\"\r\n        );\r\n        Owner_document_count[owner]++;\r\n        Verifier_document_count[verifier]++;\r\n        existence[owner] = true;\r\n        emit adddocuments(owner, verifier, _hash, verifying_code);\r\n    }\r\n\r\n    function verifyDocuments(\r\n        uint256 index,\r\n        address owner,\r\n        address verifier,\r\n        string memory message\r\n    ) public {\r\n        require(existence[owner] == true, \"Invalid Owner Account\");\r\n        require(\r\n            index <= Owner_document_count[owner],\r\n            \"No file is associated with given index\"\r\n        );\r\n        require(\r\n            Owners[owner][index].verifier == verifier,\r\n            \"Invalid verifier account\"\r\n        );\r\n        require(\r\n            Owners[owner][index].verified == false,\r\n            \"Document Already verified\"\r\n        );\r\n        uint256 time = block.timestamp;\r\n        Owners[owner][index].verified = true;\r\n        Owners[owner][index].verified_timestamp = time;\r\n        Owners[owner][index].msg_document = message;\r\n        Verifiers[verifier][index].verified = true;\r\n        Verifiers[verifier][index].verified_timestamp = time;\r\n        Verifiers[verifier][index].msg_document = message;\r\n    }\r\n}\r\n",
  "sourcePath": "C:\\Users\\asusl\\OneDrive\\Desktop\\hackathon\\contracts\\Documetverification.sol",
  "compiler": {
    "name": "solc",
    "version": "0.8.13+commit.abaa5c0e.Emscripten.clang"
  },
  "schemaVersion": "3.4.11",
  "updatedAt": "2023-03-26T14:47:43.292Z",
  "networkType": "ethereum",
  "devdoc": {
    "kind": "dev",
    "methods": {},
    "version": 1
  },
  "userdoc": {
    "kind": "user",
    "methods": {},
    "version": 1
  }
}